{
  "contractName": "ZombieAttack",
  "abi": [
    {
      "constant": false,
      "inputs": [
        {
          "name": "_zombieId",
          "type": "uint256"
        }
      ],
      "name": "levelUp",
      "outputs": [],
      "payable": true,
      "stateMutability": "payable",
      "type": "function"
    },
    {
      "constant": false,
      "inputs": [
        {
          "name": "_zombieId",
          "type": "uint256"
        },
        {
          "name": "_kittyId",
          "type": "uint256"
        }
      ],
      "name": "feedOnKitty",
      "outputs": [],
      "payable": false,
      "stateMutability": "nonpayable",
      "type": "function"
    },
    {
      "constant": true,
      "inputs": [
        {
          "name": "",
          "type": "uint256"
        }
      ],
      "name": "zombies",
      "outputs": [
        {
          "name": "name",
          "type": "string"
        },
        {
          "name": "dna",
          "type": "uint256"
        },
        {
          "name": "level",
          "type": "uint32"
        },
        {
          "name": "readyTime",
          "type": "uint32"
        },
        {
          "name": "winCount",
          "type": "uint16"
        },
        {
          "name": "lossCount",
          "type": "uint16"
        }
      ],
      "payable": false,
      "stateMutability": "view",
      "type": "function"
    },
    {
      "constant": false,
      "inputs": [],
      "name": "withdraw",
      "outputs": [],
      "payable": false,
      "stateMutability": "nonpayable",
      "type": "function"
    },
    {
      "constant": true,
      "inputs": [
        {
          "name": "_owner",
          "type": "address"
        }
      ],
      "name": "getZombiesByOwner",
      "outputs": [
        {
          "name": "",
          "type": "uint256[]"
        }
      ],
      "payable": false,
      "stateMutability": "view",
      "type": "function"
    },
    {
      "constant": true,
      "inputs": [
        {
          "name": "",
          "type": "uint256"
        }
      ],
      "name": "zombieToOwner",
      "outputs": [
        {
          "name": "",
          "type": "address"
        }
      ],
      "payable": false,
      "stateMutability": "view",
      "type": "function"
    },
    {
      "constant": false,
      "inputs": [
        {
          "name": "_address",
          "type": "address"
        }
      ],
      "name": "setKittyContractAddress",
      "outputs": [],
      "payable": false,
      "stateMutability": "nonpayable",
      "type": "function"
    },
    {
      "constant": false,
      "inputs": [
        {
          "name": "_zombieId",
          "type": "uint256"
        },
        {
          "name": "_newDna",
          "type": "uint256"
        }
      ],
      "name": "changeDna",
      "outputs": [],
      "payable": false,
      "stateMutability": "nonpayable",
      "type": "function"
    },
    {
      "constant": false,
      "inputs": [
        {
          "name": "_name",
          "type": "string"
        }
      ],
      "name": "createRandomZombie",
      "outputs": [],
      "payable": false,
      "stateMutability": "nonpayable",
      "type": "function"
    },
    {
      "constant": true,
      "inputs": [],
      "name": "owner",
      "outputs": [
        {
          "name": "",
          "type": "address"
        }
      ],
      "payable": false,
      "stateMutability": "view",
      "type": "function"
    },
    {
      "constant": false,
      "inputs": [
        {
          "name": "_zombieId",
          "type": "uint256"
        },
        {
          "name": "_newName",
          "type": "string"
        }
      ],
      "name": "changeName",
      "outputs": [],
      "payable": false,
      "stateMutability": "nonpayable",
      "type": "function"
    },
    {
      "constant": false,
      "inputs": [
        {
          "name": "_fee",
          "type": "uint256"
        }
      ],
      "name": "setLevelUpFee",
      "outputs": [],
      "payable": false,
      "stateMutability": "nonpayable",
      "type": "function"
    },
    {
      "constant": true,
      "inputs": [
        {
          "name": "_kittyId",
          "type": "uint256"
        }
      ],
      "name": "getKitty",
      "outputs": [
        {
          "name": "",
          "type": "uint256"
        }
      ],
      "payable": false,
      "stateMutability": "view",
      "type": "function"
    },
    {
      "constant": false,
      "inputs": [
        {
          "name": "newOwner",
          "type": "address"
        }
      ],
      "name": "transferOwnership",
      "outputs": [],
      "payable": false,
      "stateMutability": "nonpayable",
      "type": "function"
    },
    {
      "anonymous": false,
      "inputs": [
        {
          "indexed": false,
          "name": "zombieId",
          "type": "uint256"
        },
        {
          "indexed": false,
          "name": "name",
          "type": "string"
        },
        {
          "indexed": false,
          "name": "dna",
          "type": "uint256"
        }
      ],
      "name": "NewZombie",
      "type": "event"
    },
    {
      "anonymous": false,
      "inputs": [
        {
          "indexed": true,
          "name": "previousOwner",
          "type": "address"
        },
        {
          "indexed": true,
          "name": "newOwner",
          "type": "address"
        }
      ],
      "name": "OwnershipTransferred",
      "type": "event"
    },
    {
      "constant": false,
      "inputs": [
        {
          "name": "_zombieId",
          "type": "uint256"
        },
        {
          "name": "_targetId",
          "type": "uint256"
        }
      ],
      "name": "attack",
      "outputs": [],
      "payable": false,
      "stateMutability": "nonpayable",
      "type": "function"
    }
  ],
  "bytecode": "0x60606040526010600155600154600a0a6002556201518060035566038d7ea4c6800060085560006009556046600a55336000806101000a81548173ffffffffffffffffffffffffffffffffffffffff021916908373ffffffffffffffffffffffffffffffffffffffff160217905550611a908061007d6000396000f3006060604052600436106100db576000357c0100000000000000000000000000000000000000000000000000000000900463ffffffff1680630ce90ec2146100e057806317a7f4cc146100f85780632052465e146101245780633ccfd60b1461020b5780634412e10414610220578063528b7b8f146102ae5780635f4623f1146103115780635faf28801461034a5780637bff0a01146103765780638da5cb5b146103d3578063c39cbef114610428578063ccf670f81461045f578063e1fa763814610482578063e98b7f4d146104ae578063f2fde38b146104e5575b600080fd5b6100f6600480803590602001909190505061051e565b005b341561010357600080fd5b610122600480803590602001909190803590602001909190505061058a565b005b341561012f57600080fd5b61014560048080359060200190919050506106e9565b60405180806020018781526020018663ffffffff1663ffffffff1681526020018563ffffffff1663ffffffff1681526020018461ffff1661ffff1681526020018361ffff1661ffff168152602001828103825288818151815260200191508051906020019080838360005b838110156101cb5780820151818401526020810190506101b0565b50505050905090810190601f1680156101f85780820380516001836020036101000a031916815260200191505b5097505050505050505060405180910390f35b341561021657600080fd5b61021e610808565b005b341561022b57600080fd5b610257600480803573ffffffffffffffffffffffffffffffffffffffff169060200190919050506108dd565b6040518080602001828103825283818151815260200191508051906020019060200280838360005b8381101561029a57808201518184015260208101905061027f565b505050509050019250505060405180910390f35b34156102b957600080fd5b6102cf6004808035906020019091905050610a0b565b604051808273ffffffffffffffffffffffffffffffffffffffff1673ffffffffffffffffffffffffffffffffffffffff16815260200191505060405180910390f35b341561031c57600080fd5b610348600480803573ffffffffffffffffffffffffffffffffffffffff16906020019091905050610a3e565b005b341561035557600080fd5b6103746004808035906020019091908035906020019091905050610add565b005b341561038157600080fd5b6103d1600480803590602001908201803590602001908080601f01602080910402602001604051908101604052809392919081815260200183838082843782019150505050505091905050610bbf565b005b34156103de57600080fd5b6103e6610c38565b604051808273ffffffffffffffffffffffffffffffffffffffff1673ffffffffffffffffffffffffffffffffffffffff16815260200191505060405180910390f35b341561043357600080fd5b61045d60048080359060200190919080359060200190820180359060200191909192905050610c5d565b005b341561046a57600080fd5b6104806004808035906020019091905050610d4b565b005b341561048d57600080fd5b6104ac6004808035906020019091908035906020019091905050610db0565b005b34156104b957600080fd5b6104cf6004808035906020019091905050610fec565b6040518082815260200191505060405180910390f35b34156104f057600080fd5b61051c600480803573ffffffffffffffffffffffffffffffffffffffff16906020019091905050611110565b005b6008543414151561052e57600080fd5b60048181548110151561053d57fe5b9060005260206000209060030201600201600081819054906101000a900463ffffffff168092919060010191906101000a81548163ffffffff021916908363ffffffff1602179055505050565b6000600760009054906101000a900473ffffffffffffffffffffffffffffffffffffffff1673ffffffffffffffffffffffffffffffffffffffff1663e98b7f4d836040518263ffffffff167c01000000000000000000000000000000000000000000000000000000000281526004018082815260200191505061014060405180830381600087803b151561061d57600080fd5b5af1151561062a57600080fd5b50505060405180519060200180519060200180519060200180519060200180519060200180519060200180519060200180519060200180519060200180519050909192939495969798509091929394959697509091929394959650909192939495509091929394509091929350909192509091509050809150506106e483826040805190810160405280600581526020017f6b69747479000000000000000000000000000000000000000000000000000000815250611265565b505050565b6004818154811015156106f857fe5b9060005260206000209060030201600091509050806000018054600181600116156101000203166002900480601f0160208091040260200160405190810160405280929190818152602001828054600181600116156101000203166002900480156107a45780601f10610779576101008083540402835291602001916107a4565b820191906000526020600020905b81548152906001019060200180831161078757829003601f168201915b5050505050908060010154908060020160009054906101000a900463ffffffff16908060020160049054906101000a900463ffffffff16908060020160089054906101000a900461ffff169080600201600a9054906101000a900461ffff16905086565b6000809054906101000a900473ffffffffffffffffffffffffffffffffffffffff1673ffffffffffffffffffffffffffffffffffffffff163373ffffffffffffffffffffffffffffffffffffffff1614151561086357600080fd5b6000809054906101000a900473ffffffffffffffffffffffffffffffffffffffff1673ffffffffffffffffffffffffffffffffffffffff166108fc3073ffffffffffffffffffffffffffffffffffffffff16319081150290604051600060405180830381858888f1935050505015156108db57600080fd5b565b6108e5611822565b6108ed611822565b600080600660008673ffffffffffffffffffffffffffffffffffffffff1673ffffffffffffffffffffffffffffffffffffffff1681526020019081526020016000205460405180591061093d5750595b9080825280602002602001820160405250925060009150600090505b600480549050811015610a00578473ffffffffffffffffffffffffffffffffffffffff166005600083815260200190815260200160002060009054906101000a900473ffffffffffffffffffffffffffffffffffffffff1673ffffffffffffffffffffffffffffffffffffffff1614156109f3578083838151811015156109dc57fe5b906020019060200201818152505081806001019250505b8080600101915050610959565b829350505050919050565b60056020528060005260406000206000915054906101000a900473ffffffffffffffffffffffffffffffffffffffff1681565b6000809054906101000a900473ffffffffffffffffffffffffffffffffffffffff1673ffffffffffffffffffffffffffffffffffffffff163373ffffffffffffffffffffffffffffffffffffffff16141515610a9957600080fd5b80600760006101000a81548173ffffffffffffffffffffffffffffffffffffffff021916908373ffffffffffffffffffffffffffffffffffffffff16021790555050565b60148281600482815481101515610af057fe5b906000526020600020906003020160020160009054906101000a900463ffffffff1663ffffffff1610151515610b2557600080fd5b836005600082815260200190815260200160002060009054906101000a900473ffffffffffffffffffffffffffffffffffffffff1673ffffffffffffffffffffffffffffffffffffffff163373ffffffffffffffffffffffffffffffffffffffff16141515610b9357600080fd5b83600486815481101515610ba357fe5b9060005260206000209060030201600101819055505050505050565b600080600660003373ffffffffffffffffffffffffffffffffffffffff1673ffffffffffffffffffffffffffffffffffffffff16815260200190815260200160002054141515610c0e57600080fd5b610c178261143a565b9050606481811515610c2557fe5b0681039050610c3482826114bc565b5050565b6000809054906101000a900473ffffffffffffffffffffffffffffffffffffffff1681565b60028381600482815481101515610c7057fe5b906000526020600020906003020160020160009054906101000a900463ffffffff1663ffffffff1610151515610ca557600080fd5b846005600082815260200190815260200160002060009054906101000a900473ffffffffffffffffffffffffffffffffffffffff1673ffffffffffffffffffffffffffffffffffffffff163373ffffffffffffffffffffffffffffffffffffffff16141515610d1357600080fd5b8484600488815481101515610d2457fe5b90600052602060002090600302016000019190610d42929190611836565b50505050505050565b6000809054906101000a900473ffffffffffffffffffffffffffffffffffffffff1673ffffffffffffffffffffffffffffffffffffffff163373ffffffffffffffffffffffffffffffffffffffff16141515610da657600080fd5b8060088190555050565b6000806000846005600082815260200190815260200160002060009054906101000a900473ffffffffffffffffffffffffffffffffffffffff1673ffffffffffffffffffffffffffffffffffffffff163373ffffffffffffffffffffffffffffffffffffffff16141515610e2357600080fd5b600486815481101515610e3257fe5b90600052602060002090600302019350600485815481101515610e5157fe5b90600052602060002090600302019250610e6b6064611744565b9150600a5482111515610f6c5783600201600881819054906101000a900461ffff168092919060010191906101000a81548161ffff021916908361ffff1602179055505083600201600081819054906101000a900463ffffffff168092919060010191906101000a81548163ffffffff021916908363ffffffff1602179055505082600201600a81819054906101000a900461ffff168092919060010191906101000a81548161ffff021916908361ffff16021790555050610f678684600101546040805190810160405280600681526020017f7a6f6d6269650000000000000000000000000000000000000000000000000000815250611265565b610fe4565b83600201600a81819054906101000a900461ffff168092919060010191906101000a81548161ffff021916908361ffff1602179055505082600201600881819054906101000a900461ffff168092919060010191906101000a81548161ffff021916908361ffff16021790555050610fe3846117d1565b5b505050505050565b600080600760009054906101000a900473ffffffffffffffffffffffffffffffffffffffff1673ffffffffffffffffffffffffffffffffffffffff1663e98b7f4d846040518263ffffffff167c01000000000000000000000000000000000000000000000000000000000281526004018082815260200191505061014060405180830381600087803b151561108057600080fd5b5af1151561108d57600080fd5b505050604051805190602001805190602001805190602001805190602001805190602001805190602001805190602001805190602001805190602001805190509091929394959697985090919293949596975090919293949596509091929394955090919293945090919293509091925090915090508091505080915050919050565b6000809054906101000a900473ffffffffffffffffffffffffffffffffffffffff1673ffffffffffffffffffffffffffffffffffffffff163373ffffffffffffffffffffffffffffffffffffffff1614151561116b57600080fd5b600073ffffffffffffffffffffffffffffffffffffffff168173ffffffffffffffffffffffffffffffffffffffff16141515156111a757600080fd5b8073ffffffffffffffffffffffffffffffffffffffff166000809054906101000a900473ffffffffffffffffffffffffffffffffffffffff1673ffffffffffffffffffffffffffffffffffffffff167f8be0079c531659141344cd1fd0a4f28419497f9722a3daafe3b4186f6b6457e060405160405180910390a3806000806101000a81548173ffffffffffffffffffffffffffffffffffffffff021916908373ffffffffffffffffffffffffffffffffffffffff16021790555050565b600080846005600082815260200190815260200160002060009054906101000a900473ffffffffffffffffffffffffffffffffffffffff1673ffffffffffffffffffffffffffffffffffffffff163373ffffffffffffffffffffffffffffffffffffffff161415156112d657600080fd5b6004868154811015156112e557fe5b906000526020600020906003020192506112fe836117fb565b151561130957600080fd5b6002548581151561131657fe5b06945060028584600101540181151561132b57fe5b04915060405180807f6b697474790000000000000000000000000000000000000000000000000000008152506005019050604051809103902060001916846040518082805190602001908083835b60208310151561139e5780518252602082019150602081019050602083039250611379565b6001836020036101000a03801982511681845116808217855250505050505090500191505060405180910390206000191614156113ea5760636064838115156113e357fe5b0683030191505b6114296040805190810160405280600681526020017f4e6f4e616d650000000000000000000000000000000000000000000000000000815250836114bc565b611432836117d1565b505050505050565b600080826040518082805190602001908083835b602083101515611473578051825260208201915060208101905060208303925061144e565b6001836020036101000a0380198251168184511680821785525050505050509050019150506040518091039020600190049050600254818115156114b357fe5b06915050919050565b60006001600480548060010182816114d491906118b6565b9160005260206000209060030201600060c060405190810160405280888152602001878152602001600163ffffffff168152602001600354420163ffffffff168152602001600061ffff168152602001600061ffff168152509091909150600082015181600001908051906020019061154e9291906118e8565b506020820151816001015560408201518160020160006101000a81548163ffffffff021916908363ffffffff16021790555060608201518160020160046101000a81548163ffffffff021916908363ffffffff16021790555060808201518160020160086101000a81548161ffff021916908361ffff16021790555060a082015181600201600a6101000a81548161ffff021916908361ffff1602179055505050039050336005600083815260200190815260200160002060006101000a81548173ffffffffffffffffffffffffffffffffffffffff021916908373ffffffffffffffffffffffffffffffffffffffff160217905550600660003373ffffffffffffffffffffffffffffffffffffffff1673ffffffffffffffffffffffffffffffffffffffff168152602001908152602001600020600081548092919060010191905055507f88f026aacbbecc90c18411df4b1185fd8d9be2470f1962f192bf84a27d0704b78184846040518084815260200180602001838152602001828103825284818151815260200191508051906020019080838360005b838110156117035780820151818401526020810190506116e8565b50505050905090810190601f1680156117305780820380516001836020036101000a031916815260200191505b5094505050505060405180910390a1505050565b6000600960008154809291906001019190505550814233600954604051808481526020018373ffffffffffffffffffffffffffffffffffffffff1673ffffffffffffffffffffffffffffffffffffffff166c0100000000000000000000000002815260140182815260200193505050506040518091039020600190048115156117c957fe5b069050919050565b60035442018160020160046101000a81548163ffffffff021916908363ffffffff16021790555050565b6000428260020160049054906101000a900463ffffffff1663ffffffff1611159050919050565b602060405190810160405280600081525090565b828054600181600116156101000203166002900490600052602060002090601f016020900481019282601f1061187757803560ff19168380011785556118a5565b828001600101855582156118a5579182015b828111156118a4578235825591602001919060010190611889565b5b5090506118b29190611968565b5090565b8154818355818115116118e3576003028160030283600052602060002091820191016118e2919061198d565b5b505050565b828054600181600116156101000203166002900490600052602060002090601f016020900481019282601f1061192957805160ff1916838001178555611957565b82800160010185558215611957579182015b8281111561195657825182559160200191906001019061193b565b5b5090506119649190611968565b5090565b61198a91905b8082111561198657600081600090555060010161196e565b5090565b90565b611a1991905b80821115611a1557600080820160006119ac9190611a1c565b60018201600090556002820160006101000a81549063ffffffff02191690556002820160046101000a81549063ffffffff02191690556002820160086101000a81549061ffff021916905560028201600a6101000a81549061ffff021916905550600301611993565b5090565b90565b50805460018160011615610100020316600290046000825580601f10611a425750611a61565b601f016020900490600052602060002090810190611a609190611968565b5b505600a165627a7a72305820b4ae865ad3e21aeff868697f7500801825eb666088d509f24e7de2462440ca860029",
  "source": "pragma solidity ^0.4.19;\n\nimport \"./zombiehelper.sol\";\n\ncontract ZombieAttack is ZombieHelper {\n  uint randNonce = 0;\n  uint attackVictoryProbability = 70;\n\n  function randMod(uint _modulus) internal returns(uint) {\n    randNonce++;\n    return uint(keccak256(now, msg.sender, randNonce)) % _modulus;\n  }\n\n  function attack(uint _zombieId, uint _targetId) external onlyOwnerOf(_zombieId) {\n    Zombie storage myZombie = zombies[_zombieId];\n    Zombie storage enemyZombie = zombies[_targetId];\n    uint rand = randMod(100);\n    if (rand <= attackVictoryProbability) {\n      myZombie.winCount++;\n      myZombie.level++;\n      enemyZombie.lossCount++;\n      feedAndMultiply(_zombieId, enemyZombie.dna, \"zombie\");\n    } else {\n      myZombie.lossCount++;\n      enemyZombie.winCount++;\n      _triggerCooldown(myZombie);\n    }\n  }\n}\n",
  "sourcePath": "/Users/mohammadsyed/Desktop/CVS/zombiestruct/contracts/zombieattack.sol",
  "compiler": {
    "name": "solc",
    "version": "0.4.21+commit.dfe3193c.Emscripten.clang"
  },
  "schemaVersion": "2.0.0",
  "updatedAt": "2018-05-17T21:16:49.608Z"
}